{
  "address": "0xe7f1725E7734CE288F8367e1Bb143E90bb3F0512",
  "abi": [
    {
      "inputs": [
        {
          "internalType": "address",
          "name": "priceFeedAddress",
          "type": "address"
        }
      ],
      "stateMutability": "nonpayable",
      "type": "constructor"
    },
    {
      "inputs": [],
      "name": "FundMe__NotOwner",
      "type": "error"
    },
    {
      "inputs": [
        {
          "internalType": "address",
          "name": "",
          "type": "address"
        }
      ],
      "name": "addressToAmountFunded",
      "outputs": [
        {
          "internalType": "uint256",
          "name": "",
          "type": "uint256"
        }
      ],
      "stateMutability": "view",
      "type": "function"
    },
    {
      "inputs": [],
      "name": "fund",
      "outputs": [],
      "stateMutability": "payable",
      "type": "function"
    },
    {
      "inputs": [
        {
          "internalType": "uint256",
          "name": "",
          "type": "uint256"
        }
      ],
      "name": "funders",
      "outputs": [
        {
          "internalType": "address",
          "name": "",
          "type": "address"
        }
      ],
      "stateMutability": "view",
      "type": "function"
    },
    {
      "inputs": [],
      "name": "minUSD",
      "outputs": [
        {
          "internalType": "uint256",
          "name": "",
          "type": "uint256"
        }
      ],
      "stateMutability": "view",
      "type": "function"
    },
    {
      "inputs": [],
      "name": "owner",
      "outputs": [
        {
          "internalType": "address",
          "name": "",
          "type": "address"
        }
      ],
      "stateMutability": "view",
      "type": "function"
    },
    {
      "inputs": [],
      "name": "priceFeed",
      "outputs": [
        {
          "internalType": "contract AggregatorV3Interface",
          "name": "",
          "type": "address"
        }
      ],
      "stateMutability": "view",
      "type": "function"
    },
    {
      "inputs": [],
      "name": "withdraw",
      "outputs": [],
      "stateMutability": "nonpayable",
      "type": "function"
    }
  ],
  "transactionHash": "0xaadf46300779fd9782012f1d28c8aac8b08a7225572f5b44b23ca824a801558e",
  "args": [
    "0x5FbDB2315678afecb367f032d93F642f64180aa3"
  ],
  "numDeployments": 1,
  "solcInputHash": "f100333c8f72a4a9e001a8371049ae52",
  "bytecode": "0x60a060405234801561001057600080fd5b50604051610f64380380610f6483398181016040528101906100329190610113565b3373ffffffffffffffffffffffffffffffffffffffff1660808173ffffffffffffffffffffffffffffffffffffffff1660601b8152505080600260006101000a81548173ffffffffffffffffffffffffffffffffffffffff021916908373ffffffffffffffffffffffffffffffffffffffff16021790555050610140565b600080fd5b600073ffffffffffffffffffffffffffffffffffffffff82169050919050565b60006100e0826100b5565b9050919050565b6100f0816100d5565b81146100fb57600080fd5b50565b60008151905061010d816100e7565b92915050565b600060208284031215610129576101286100b0565b5b6000610137848285016100fe565b91505092915050565b60805160601c610dff6101656000396000818161019301526104110152610dff6000f3fe6080604052600436106100705760003560e01c80638da5cb5b1161004e5780638da5cb5b146100f4578063b60d42881461011f578063dc0d3dff14610129578063dc992aa01461016657610070565b80633ccfd60b146100755780633e47d6f31461008c578063741bef1a146100c9575b600080fd5b34801561008157600080fd5b5061008a610191565b005b34801561009857600080fd5b506100b360048036038101906100ae919061078d565b6103d1565b6040516100c091906107d3565b60405180910390f35b3480156100d557600080fd5b506100de6103e9565b6040516100eb919061084d565b60405180910390f35b34801561010057600080fd5b5061010961040f565b6040516101169190610877565b60405180910390f35b610127610433565b005b34801561013557600080fd5b50610150600480360381019061014b91906108be565b61055b565b60405161015d9190610877565b60405180910390f35b34801561017257600080fd5b5061017b61059a565b60405161018891906107d3565b60405180910390f35b7f000000000000000000000000000000000000000000000000000000000000000073ffffffffffffffffffffffffffffffffffffffff163373ffffffffffffffffffffffffffffffffffffffff1614610216576040517f579610db00000000000000000000000000000000000000000000000000000000815260040160405180910390fd5b60005b6000805490508110156102c157600080828154811061023b5761023a6108eb565b5b9060005260206000200160009054906101000a900473ffffffffffffffffffffffffffffffffffffffff1690506000600160008373ffffffffffffffffffffffffffffffffffffffff1673ffffffffffffffffffffffffffffffffffffffff168152602001908152602001600020819055505080806102b990610949565b915050610219565b50600067ffffffffffffffff8111156102dd576102dc610992565b5b60405190808252806020026020018201604052801561030b5781602001602082028036833780820191505090505b5060009080519060200190610321929190610683565b5060003373ffffffffffffffffffffffffffffffffffffffff1647604051610348906109f2565b60006040518083038185875af1925050503d8060008114610385576040519150601f19603f3d011682016040523d82523d6000602084013e61038a565b606091505b50509050806103ce576040517f08c379a00000000000000000000000000000000000000000000000000000000081526004016103c590610a64565b60405180910390fd5b50565b60016020528060005260406000206000915090505481565b600260009054906101000a900473ffffffffffffffffffffffffffffffffffffffff1681565b7f000000000000000000000000000000000000000000000000000000000000000081565b6802b5e3af16b1880000610472600260009054906101000a900473ffffffffffffffffffffffffffffffffffffffff16346105a790919063ffffffff16565b116104b2576040517f08c379a00000000000000000000000000000000000000000000000000000000081526004016104a990610ad0565b60405180910390fd5b34600160003373ffffffffffffffffffffffffffffffffffffffff1673ffffffffffffffffffffffffffffffffffffffff168152602001908152602001600020819055506000339080600181540180825580915050600190039060005260206000200160009091909190916101000a81548173ffffffffffffffffffffffffffffffffffffffff021916908373ffffffffffffffffffffffffffffffffffffffff160217905550565b6000818154811061056b57600080fd5b906000526020600020016000915054906101000a900473ffffffffffffffffffffffffffffffffffffffff1681565b6802b5e3af16b188000081565b6000806105b3836105e3565b90506000670de0b6b3a764000082866105cc9190610af0565b6105d69190610b79565b9050809250505092915050565b6000808273ffffffffffffffffffffffffffffffffffffffff1663feaf968c6040518163ffffffff1660e01b815260040160a06040518083038186803b15801561062c57600080fd5b505afa158015610640573d6000803e3d6000fd5b505050506040513d601f19601f820116820180604052508101906106649190610c37565b5050509150506402540be4008161067b9190610cb2565b915050919050565b8280548282559060005260206000209081019282156106fc579160200282015b828111156106fb5782518260006101000a81548173ffffffffffffffffffffffffffffffffffffffff021916908373ffffffffffffffffffffffffffffffffffffffff160217905550916020019190600101906106a3565b5b509050610709919061070d565b5090565b5b8082111561072657600081600090555060010161070e565b5090565b600080fd5b600073ffffffffffffffffffffffffffffffffffffffff82169050919050565b600061075a8261072f565b9050919050565b61076a8161074f565b811461077557600080fd5b50565b60008135905061078781610761565b92915050565b6000602082840312156107a3576107a261072a565b5b60006107b184828501610778565b91505092915050565b6000819050919050565b6107cd816107ba565b82525050565b60006020820190506107e860008301846107c4565b92915050565b6000819050919050565b600061081361080e6108098461072f565b6107ee565b61072f565b9050919050565b6000610825826107f8565b9050919050565b60006108378261081a565b9050919050565b6108478161082c565b82525050565b6000602082019050610862600083018461083e565b92915050565b6108718161074f565b82525050565b600060208201905061088c6000830184610868565b92915050565b61089b816107ba565b81146108a657600080fd5b50565b6000813590506108b881610892565b92915050565b6000602082840312156108d4576108d361072a565b5b60006108e2848285016108a9565b91505092915050565b7f4e487b7100000000000000000000000000000000000000000000000000000000600052603260045260246000fd5b7f4e487b7100000000000000000000000000000000000000000000000000000000600052601160045260246000fd5b6000610954826107ba565b91507fffffffffffffffffffffffffffffffffffffffffffffffffffffffffffffffff8214156109875761098661091a565b5b600182019050919050565b7f4e487b7100000000000000000000000000000000000000000000000000000000600052604160045260246000fd5b600081905092915050565b50565b60006109dc6000836109c1565b91506109e7826109cc565b600082019050919050565b60006109fd826109cf565b9150819050919050565b600082825260208201905092915050565b7f63616c6c206661696c6564000000000000000000000000000000000000000000600082015250565b6000610a4e600b83610a07565b9150610a5982610a18565b602082019050919050565b60006020820190508181036000830152610a7d81610a41565b9050919050565b7f4469646e742073656e6420656e6f756768000000000000000000000000000000600082015250565b6000610aba601183610a07565b9150610ac582610a84565b602082019050919050565b60006020820190508181036000830152610ae981610aad565b9050919050565b6000610afb826107ba565b9150610b06836107ba565b9250817fffffffffffffffffffffffffffffffffffffffffffffffffffffffffffffffff0483118215151615610b3f57610b3e61091a565b5b828202905092915050565b7f4e487b7100000000000000000000000000000000000000000000000000000000600052601260045260246000fd5b6000610b84826107ba565b9150610b8f836107ba565b925082610b9f57610b9e610b4a565b5b828204905092915050565b600069ffffffffffffffffffff82169050919050565b610bc981610baa565b8114610bd457600080fd5b50565b600081519050610be681610bc0565b92915050565b6000819050919050565b610bff81610bec565b8114610c0a57600080fd5b50565b600081519050610c1c81610bf6565b92915050565b600081519050610c3181610892565b92915050565b600080600080600060a08688031215610c5357610c5261072a565b5b6000610c6188828901610bd7565b9550506020610c7288828901610c0d565b9450506040610c8388828901610c22565b9350506060610c9488828901610c22565b9250506080610ca588828901610bd7565b9150509295509295909350565b6000610cbd82610bec565b9150610cc883610bec565b9250827f7fffffffffffffffffffffffffffffffffffffffffffffffffffffffffffffff0482116000841360008413161615610d0757610d0661091a565b5b817f80000000000000000000000000000000000000000000000000000000000000000583126000841260008413161615610d4457610d4361091a565b5b827f80000000000000000000000000000000000000000000000000000000000000000582126000841360008412161615610d8157610d8061091a565b5b827f7fffffffffffffffffffffffffffffffffffffffffffffffffffffffffffffff0582126000841260008412161615610dbe57610dbd61091a565b5b82820290509291505056fea2646970667358221220dd9869fc0e6ec2bc4e79c5f9726b65e0cc24e94b4f47e15ff018fbff95189fc964736f6c63430008080033",
  "devdoc": {
    "kind": "dev",
    "methods": {},
    "version": 1
  },
  "userdoc": {
    "kind": "user",
    "methods": {},
    "version": 1
  },
  "storageLayout": {
    "storage": [
      {
        "astId": 61,
        "contract": "contracts/FundMe.sol:FundMe",
        "label": "funders",
        "offset": 0,
        "slot": "0",
        "type": "t_array(t_address)dyn_storage"
      },
      {
        "astId": 65,
        "contract": "contracts/FundMe.sol:FundMe",
        "label": "addressToAmountFunded",
        "offset": 0,
        "slot": "1",
        "type": "t_mapping(t_address,t_uint256)"
      },
      {
        "astId": 70,
        "contract": "contracts/FundMe.sol:FundMe",
        "label": "priceFeed",
        "offset": 0,
        "slot": "2",
        "type": "t_contract(AggregatorV3Interface)45"
      }
    ],
    "types": {
      "t_address": {
        "encoding": "inplace",
        "label": "address",
        "numberOfBytes": "20"
      },
      "t_array(t_address)dyn_storage": {
        "base": "t_address",
        "encoding": "dynamic_array",
        "label": "address[]",
        "numberOfBytes": "32"
      },
      "t_contract(AggregatorV3Interface)45": {
        "encoding": "inplace",
        "label": "contract AggregatorV3Interface",
        "numberOfBytes": "20"
      },
      "t_mapping(t_address,t_uint256)": {
        "encoding": "mapping",
        "key": "t_address",
        "label": "mapping(address => uint256)",
        "numberOfBytes": "32",
        "value": "t_uint256"
      },
      "t_uint256": {
        "encoding": "inplace",
        "label": "uint256",
        "numberOfBytes": "32"
      }
    }
  }
}